{
  "address": "0xa51d07bC2dB396Ae209D025566941BE3A6FEd54C",
  "abi": [
    {
      "inputs": [
        {
          "internalType": "uint256",
          "name": "bidEpoch",
          "type": "uint256"
        },
        {
          "internalType": "uint256",
          "name": "timeExtension",
          "type": "uint256"
        },
        {
          "internalType": "uint256",
          "name": "commission_",
          "type": "uint256"
        }
      ],
      "stateMutability": "nonpayable",
      "type": "constructor"
    },
    {
      "inputs": [],
      "name": "GameEnded",
      "type": "error"
    },
    {
      "inputs": [],
      "name": "GameNotEnded",
      "type": "error"
    },
    {
      "inputs": [],
      "name": "GameNotPlaying",
      "type": "error"
    },
    {
      "inputs": [
        {
          "internalType": "uint256",
          "name": "highestBid",
          "type": "uint256"
        },
        {
          "internalType": "uint256",
          "name": "currentBid",
          "type": "uint256"
        }
      ],
      "name": "LowerBid",
      "type": "error"
    },
    {
      "inputs": [
        {
          "internalType": "uint256",
          "name": "nextEpoch",
          "type": "uint256"
        },
        {
          "internalType": "uint256",
          "name": "currentTime",
          "type": "uint256"
        }
      ],
      "name": "NotElapsedToBid",
      "type": "error"
    },
    {
      "inputs": [
        {
          "internalType": "uint256",
          "name": "endTime",
          "type": "uint256"
        },
        {
          "internalType": "uint256",
          "name": "currentTime",
          "type": "uint256"
        }
      ],
      "name": "NotElapsedToEnd",
      "type": "error"
    },
    {
      "inputs": [
        {
          "internalType": "address",
          "name": "sender",
          "type": "address"
        },
        {
          "internalType": "uint256",
          "name": "amount",
          "type": "uint256"
        }
      ],
      "name": "TransferFailed",
      "type": "error"
    },
    {
      "anonymous": false,
      "inputs": [
        {
          "indexed": true,
          "internalType": "address",
          "name": "bidder",
          "type": "address"
        },
        {
          "indexed": false,
          "internalType": "uint256",
          "name": "bidPrice",
          "type": "uint256"
        }
      ],
      "name": "Bid",
      "type": "event"
    },
    {
      "anonymous": false,
      "inputs": [
        {
          "indexed": false,
          "internalType": "address",
          "name": "winner",
          "type": "address"
        },
        {
          "indexed": false,
          "internalType": "uint256",
          "name": "prizeAmount",
          "type": "uint256"
        }
      ],
      "name": "EndGame",
      "type": "event"
    },
    {
      "anonymous": false,
      "inputs": [
        {
          "indexed": true,
          "internalType": "address",
          "name": "previousOwner",
          "type": "address"
        },
        {
          "indexed": true,
          "internalType": "address",
          "name": "newOwner",
          "type": "address"
        }
      ],
      "name": "OwnershipTransferred",
      "type": "event"
    },
    {
      "anonymous": false,
      "inputs": [
        {
          "indexed": false,
          "internalType": "uint256",
          "name": "startedAt",
          "type": "uint256"
        }
      ],
      "name": "StartGame",
      "type": "event"
    },
    {
      "anonymous": false,
      "inputs": [
        {
          "indexed": false,
          "internalType": "address",
          "name": "sender",
          "type": "address"
        },
        {
          "indexed": false,
          "internalType": "uint256",
          "name": "amount",
          "type": "uint256"
        }
      ],
      "name": "Transfer",
      "type": "event"
    },
    {
      "inputs": [],
      "name": "bid",
      "outputs": [],
      "stateMutability": "payable",
      "type": "function"
    },
    {
      "inputs": [],
      "name": "commission",
      "outputs": [
        {
          "internalType": "uint256",
          "name": "",
          "type": "uint256"
        }
      ],
      "stateMutability": "view",
      "type": "function"
    },
    {
      "inputs": [],
      "name": "defaultBidEpoch",
      "outputs": [
        {
          "internalType": "uint256",
          "name": "",
          "type": "uint256"
        }
      ],
      "stateMutability": "view",
      "type": "function"
    },
    {
      "inputs": [],
      "name": "defaultTimeExtension",
      "outputs": [
        {
          "internalType": "uint256",
          "name": "",
          "type": "uint256"
        }
      ],
      "stateMutability": "view",
      "type": "function"
    },
    {
      "inputs": [],
      "name": "endGame",
      "outputs": [],
      "stateMutability": "nonpayable",
      "type": "function"
    },
    {
      "inputs": [],
      "name": "gameInfo",
      "outputs": [
        {
          "internalType": "uint256",
          "name": "",
          "type": "uint256"
        },
        {
          "internalType": "uint256",
          "name": "",
          "type": "uint256"
        },
        {
          "internalType": "uint256",
          "name": "",
          "type": "uint256"
        },
        {
          "internalType": "uint256",
          "name": "",
          "type": "uint256"
        },
        {
          "internalType": "uint256",
          "name": "",
          "type": "uint256"
        },
        {
          "internalType": "address",
          "name": "",
          "type": "address"
        },
        {
          "internalType": "uint256",
          "name": "",
          "type": "uint256"
        },
        {
          "internalType": "bool",
          "name": "",
          "type": "bool"
        },
        {
          "internalType": "uint256",
          "name": "",
          "type": "uint256"
        }
      ],
      "stateMutability": "view",
      "type": "function"
    },
    {
      "inputs": [],
      "name": "isPlaying",
      "outputs": [
        {
          "internalType": "bool",
          "name": "",
          "type": "bool"
        }
      ],
      "stateMutability": "view",
      "type": "function"
    },
    {
      "inputs": [],
      "name": "isTimeElapsedToBid",
      "outputs": [
        {
          "internalType": "bool",
          "name": "",
          "type": "bool"
        }
      ],
      "stateMutability": "view",
      "type": "function"
    },
    {
      "inputs": [],
      "name": "isTimeElapsedToEnd",
      "outputs": [
        {
          "internalType": "bool",
          "name": "",
          "type": "bool"
        }
      ],
      "stateMutability": "view",
      "type": "function"
    },
    {
      "inputs": [],
      "name": "owner",
      "outputs": [
        {
          "internalType": "address",
          "name": "",
          "type": "address"
        }
      ],
      "stateMutability": "view",
      "type": "function"
    },
    {
      "inputs": [],
      "name": "renounceOwnership",
      "outputs": [],
      "stateMutability": "nonpayable",
      "type": "function"
    },
    {
      "inputs": [
        {
          "internalType": "uint256",
          "name": "bidEpoch",
          "type": "uint256"
        }
      ],
      "name": "setDefaultBidEpoch",
      "outputs": [],
      "stateMutability": "nonpayable",
      "type": "function"
    },
    {
      "inputs": [
        {
          "internalType": "uint256",
          "name": "timeExtension",
          "type": "uint256"
        }
      ],
      "name": "setDefaultTimeExtension",
      "outputs": [],
      "stateMutability": "nonpayable",
      "type": "function"
    },
    {
      "inputs": [
        {
          "internalType": "uint256",
          "name": "playingPeriod",
          "type": "uint256"
        }
      ],
      "name": "startGame",
      "outputs": [],
      "stateMutability": "nonpayable",
      "type": "function"
    },
    {
      "inputs": [
        {
          "internalType": "address",
          "name": "newOwner",
          "type": "address"
        }
      ],
      "name": "transferOwnership",
      "outputs": [],
      "stateMutability": "nonpayable",
      "type": "function"
    },
    {
      "inputs": [
        {
          "internalType": "address",
          "name": "sender",
          "type": "address"
        }
      ],
      "name": "withdraw",
      "outputs": [],
      "stateMutability": "nonpayable",
      "type": "function"
    }
  ],
  "transactionHash": "0x64f7c34930df80e292e49606d96deb6f57c34f464206ad38e1349b956eb17c06",
  "args": [
    3600,
    600,
    5
  ],
  "numDeployments": 1,
  "solcInputHash": "0134a44710f29bca17ff35748df27181",
  "bytecode": "0x608060405234801561001057600080fd5b50604051610bdc380380610bdc83398101604081905261002f91610099565b61003833610049565b6001929092556002556003556100c7565b600080546001600160a01b038381166001600160a01b0319831681178455604051919092169283917f8be0079c531659141344cd1fd0a4f28419497f9722a3daafe3b4186f6b6457e09190a35050565b6000806000606084860312156100ae57600080fd5b8351925060208401519150604084015190509250925092565b610b06806100d66000396000f3fe6080604052600436106100f35760003560e01c8063a1575c7f1161008a578063e5ed1d5911610059578063e5ed1d59146102a7578063e9eace91146102c7578063ea13b9f9146102dd578063f2fde38b146102f357600080fd5b8063a1575c7f146101d4578063d804d6af146101f4578063db73bfce14610209578063e14891911461028357600080fd5b80636cbc2ded116100c65780636cbc2ded1461016b5780636e31ed1414610180578063715018a6146101975780638da5cb5b146101ac57600080fd5b80630647e025146100f85780631998aeef1461011a57806351cff8d91461012257806355113fd314610142575b600080fd5b34801561010457600080fd5b506101186101133660046109fc565b610313565b005b61011861034b565b34801561012e57600080fd5b5061011861013d3660046109cc565b610433565b34801561014e57600080fd5b50600b5460ff165b60405190151581526020015b60405180910390f35b34801561017757600080fd5b5061011861054b565b34801561018c57600080fd5b50600c544211610156565b3480156101a357600080fd5b506101186105e1565b3480156101b857600080fd5b506000546040516001600160a01b039091168152602001610162565b3480156101e057600080fd5b506101186101ef3660046109fc565b610615565b34801561020057600080fd5b50610156610644565b34801561021557600080fd5b50600454600554600654600754600854600954600a54600b54600c5460408051998a5260208a019890985296880195909552606087019390935260808601919091526001600160a01b031660a085015260c084015260ff16151560e083015261010082015261012001610162565b34801561028f57600080fd5b5061029960035481565b604051908152602001610162565b3480156102b357600080fd5b506101186102c23660046109fc565b61065f565b3480156102d357600080fd5b5061029960025481565b3480156102e957600080fd5b5061029960015481565b3480156102ff57600080fd5b5061011861030e3660046109cc565b6106b9565b6000546001600160a01b031633146103465760405162461bcd60e51b815260040161033d90610a15565b60405180910390fd5b600155565b600b5460ff1661036e57604051630f86c29160e01b815260040160405180910390fd5b600c54421161039d57600c546040516302374e2560e31b8152600481019190915242602482015260440161033d565b6103a5610644565b156103c3576040516308426a3f60e11b815260040160405180910390fd5b60075434116103f2576007546040516320b0279f60e11b8152600481019190915234602482015260440161033d565b6103fc3334610751565b60405134815233907fe684a55f31b79eca403df938249029212a5925ec6be8012e099b45bc1019e5d29060200160405180910390a2565b6000546001600160a01b0316331461045d5760405162461bcd60e51b815260040161033d90610a15565b600b5460ff161561048157604051638f86c6b360e01b815260040160405180910390fd5b6000816001600160a01b03164760405160006040518083038185875af1925050503d80600081146104ce576040519150601f19603f3d011682016040523d82523d6000602084013e6104d3565b606091505b505090508061050657604051630e21dcbb60e11b81526001600160a01b038316600482015247602482015260440161033d565b604080516001600160a01b03841681524760208201527f69ca02dd4edd7bf0a4abb9ed3b7af3f14778db5d61921c7dc7cd545266326de2910160405180910390a15050565b6000546001600160a01b031633146105755760405162461bcd60e51b815260040161033d90610a15565b600b5460ff1661059857604051630f86c29160e01b815260040160405180910390fd5b6105a0610644565b6105d757600a546004546105b49190610a4a565b60405163127cb69560e01b8152600481019190915242602482015260440161033d565b6105df6107f8565b565b6000546001600160a01b0316331461060b5760405162461bcd60e51b815260040161033d90610a15565b6105df6000610927565b6000546001600160a01b0316331461063f5760405162461bcd60e51b815260040161033d90610a15565b600255565b600a5460045460009142916106599190610a4a565b10905090565b6000546001600160a01b031633146106895760405162461bcd60e51b815260040161033d90610a15565b600b5460ff16156106ad57604051638f86c6b360e01b815260040160405180910390fd5b6106b681610977565b50565b6000546001600160a01b031633146106e35760405162461bcd60e51b815260040161033d90610a15565b6001600160a01b0381166107485760405162461bcd60e51b815260206004820152602660248201527f4f776e61626c653a206e6577206f776e657220697320746865207a65726f206160448201526564647265737360d01b606482015260840161033d565b6106b681610927565b6009546001600160a01b031661076c57600154600555610787565b60065460058054600090610781908490610a4a565b90915550505b6005546107949042610a4a565b600c55600980546001600160a01b0319166001600160a01b038416179055600781905560035460649082906107c99083610aa3565b6107d39190610a84565b6107dd9190610a62565b600880546000906107ef908490610a4a565b90915550505050565b600b805460ff191690556009546008546040516000926001600160a01b031691908381818185875af1925050503d8060008114610851576040519150601f19603f3d011682016040523d82523d6000602084013e610856565b606091505b505090508061088f57600954600854604051630e21dcbb60e11b81526001600160a01b039092166004830152602482015260440161033d565b600954600754604080516001600160a01b03909316835260208301919091527fef49d593dd1d07d53ec845a9c6b11933e44043587cb2f02cb256be5788aea420910160405180910390a1600954600854604080516001600160a01b03909316835260208301919091527f69ca02dd4edd7bf0a4abb9ed3b7af3f14778db5d61921c7dc7cd545266326de291015b60405180910390a150565b600080546001600160a01b038381166001600160a01b0319831681178455604051919092169283917f8be0079c531659141344cd1fd0a4f28419497f9722a3daafe3b4186f6b6457e09190a35050565b600b805460ff19166001179055426004819055600a82905560006005556002546006556040517f12333b322723ec26360eb708b341801ecca576387b55caa77d6e408107d2c70f9161091c9190815260200190565b6000602082840312156109de57600080fd5b81356001600160a01b03811681146109f557600080fd5b9392505050565b600060208284031215610a0e57600080fd5b5035919050565b6020808252818101527f4f776e61626c653a2063616c6c6572206973206e6f7420746865206f776e6572604082015260600190565b60008219821115610a5d57610a5d610aba565b500190565b600082610a7f57634e487b7160e01b600052601260045260246000fd5b500490565b6000816000190483118215151615610a9e57610a9e610aba565b500290565b600082821015610ab557610ab5610aba565b500390565b634e487b7160e01b600052601160045260246000fdfea2646970667358221220025e5310244de256d531c600cecc2ee63d8daf29c91bd3048a0ef11b21372ca064736f6c63430008060033",
  "devdoc": {
    "kind": "dev",
    "methods": {
      "owner()": {
        "details": "Returns the address of the current owner."
      },
      "renounceOwnership()": {
        "details": "Leaves the contract without owner. It will not be possible to call `onlyOwner` functions anymore. Can only be called by the current owner. NOTE: Renouncing ownership will leave the contract without an owner, thereby removing any functionality that is only available to the owner."
      },
      "transferOwnership(address)": {
        "details": "Transfers ownership of the contract to a new account (`newOwner`). Can only be called by the current owner."
      }
    },
    "version": 1
  },
  "userdoc": {
    "kind": "user",
    "methods": {},
    "version": 1
  },
  "storageLayout": {
    "storage": [
      {
        "astId": 7,
        "contract": "src/BiddingWar.sol:BiddingWar",
        "label": "_owner",
        "offset": 0,
        "slot": "0",
        "type": "t_address"
      },
      {
        "astId": 8228,
        "contract": "src/BiddingWar.sol:BiddingWar",
        "label": "defaultBidEpoch",
        "offset": 0,
        "slot": "1",
        "type": "t_uint256"
      },
      {
        "astId": 8230,
        "contract": "src/BiddingWar.sol:BiddingWar",
        "label": "defaultTimeExtension",
        "offset": 0,
        "slot": "2",
        "type": "t_uint256"
      },
      {
        "astId": 8232,
        "contract": "src/BiddingWar.sol:BiddingWar",
        "label": "commission",
        "offset": 0,
        "slot": "3",
        "type": "t_uint256"
      },
      {
        "astId": 8254,
        "contract": "src/BiddingWar.sol:BiddingWar",
        "label": "_gameInfo",
        "offset": 0,
        "slot": "4",
        "type": "t_struct(GameInformation)8251_storage"
      }
    ],
    "types": {
      "t_address": {
        "encoding": "inplace",
        "label": "address",
        "numberOfBytes": "20"
      },
      "t_bool": {
        "encoding": "inplace",
        "label": "bool",
        "numberOfBytes": "1"
      },
      "t_struct(GameInformation)8251_storage": {
        "encoding": "inplace",
        "label": "struct BiddingWar.GameInformation",
        "members": [
          {
            "astId": 8234,
            "contract": "src/BiddingWar.sol:BiddingWar",
            "label": "startedAt",
            "offset": 0,
            "slot": "0",
            "type": "t_uint256"
          },
          {
            "astId": 8236,
            "contract": "src/BiddingWar.sol:BiddingWar",
            "label": "bidEpoch",
            "offset": 0,
            "slot": "1",
            "type": "t_uint256"
          },
          {
            "astId": 8238,
            "contract": "src/BiddingWar.sol:BiddingWar",
            "label": "timeExtension",
            "offset": 0,
            "slot": "2",
            "type": "t_uint256"
          },
          {
            "astId": 8240,
            "contract": "src/BiddingWar.sol:BiddingWar",
            "label": "highestBidPrice",
            "offset": 0,
            "slot": "3",
            "type": "t_uint256"
          },
          {
            "astId": 8242,
            "contract": "src/BiddingWar.sol:BiddingWar",
            "label": "accumulatedFund",
            "offset": 0,
            "slot": "4",
            "type": "t_uint256"
          },
          {
            "astId": 8244,
            "contract": "src/BiddingWar.sol:BiddingWar",
            "label": "highestBidder",
            "offset": 0,
            "slot": "5",
            "type": "t_address"
          },
          {
            "astId": 8246,
            "contract": "src/BiddingWar.sol:BiddingWar",
            "label": "playingPeriod",
            "offset": 0,
            "slot": "6",
            "type": "t_uint256"
          },
          {
            "astId": 8248,
            "contract": "src/BiddingWar.sol:BiddingWar",
            "label": "isPlaying",
            "offset": 0,
            "slot": "7",
            "type": "t_bool"
          },
          {
            "astId": 8250,
            "contract": "src/BiddingWar.sol:BiddingWar",
            "label": "roundEndAt",
            "offset": 0,
            "slot": "8",
            "type": "t_uint256"
          }
        ],
        "numberOfBytes": "288"
      },
      "t_uint256": {
        "encoding": "inplace",
        "label": "uint256",
        "numberOfBytes": "32"
      }
    }
  }
}